{
  "contractName": "ReceiptTrade",
  "abi": [
    {
      "anonymous": false,
      "inputs": [
        {
          "indexed": false,
          "name": "errCode",
          "type": "int256"
        }
      ],
      "name": "getErrCode",
      "type": "event"
    },
    {
      "anonymous": false,
      "inputs": [
        {
          "indexed": false,
          "name": "hash",
          "type": "bytes32"
        }
      ],
      "name": "getHash",
      "type": "event"
    },
    {
      "constant": false,
      "inputs": [
        {
          "name": "userAddr",
          "type": "address"
        },
        {
          "name": "receiptId",
          "type": "uint256"
        },
        {
          "name": "totalQty",
          "type": "uint256"
        }
      ],
      "name": "insertUserReceipt",
      "outputs": [],
      "payable": false,
      "stateMutability": "nonpayable",
      "type": "function"
    },
    {
      "constant": true,
      "inputs": [
        {
          "name": "userAddr",
          "type": "address"
        },
        {
          "name": "index",
          "type": "uint256"
        }
      ],
      "name": "getReceipt",
      "outputs": [
        {
          "name": "receiptId",
          "type": "uint256"
        },
        {
          "name": "totalQty",
          "type": "uint256"
        },
        {
          "name": "remainQty",
          "type": "uint256"
        },
        {
          "name": "frozenQty",
          "type": "uint256"
        }
      ],
      "payable": false,
      "stateMutability": "view",
      "type": "function"
    },
    {
      "constant": true,
      "inputs": [
        {
          "name": "userAddr",
          "type": "address"
        }
      ],
      "name": "getReceiptArrayLength",
      "outputs": [
        {
          "name": "",
          "type": "uint256"
        }
      ],
      "payable": false,
      "stateMutability": "view",
      "type": "function"
    },
    {
      "constant": false,
      "inputs": [
        {
          "name": "userAddr",
          "type": "address"
        },
        {
          "name": "totalFunds",
          "type": "uint256"
        }
      ],
      "name": "insertUserFunds",
      "outputs": [],
      "payable": false,
      "stateMutability": "nonpayable",
      "type": "function"
    },
    {
      "constant": true,
      "inputs": [
        {
          "name": "userAddr",
          "type": "address"
        }
      ],
      "name": "getFunds",
      "outputs": [
        {
          "name": "totalFunds",
          "type": "uint256"
        },
        {
          "name": "remainFunds",
          "type": "uint256"
        },
        {
          "name": "frozenFunds",
          "type": "uint256"
        }
      ],
      "payable": false,
      "stateMutability": "view",
      "type": "function"
    },
    {
      "constant": false,
      "inputs": [
        {
          "name": "tradeValues",
          "type": "uint256"
        },
        {
          "name": "addr",
          "type": "address"
        },
        {
          "name": "v",
          "type": "uint8"
        },
        {
          "name": "r",
          "type": "bytes32"
        },
        {
          "name": "s",
          "type": "bytes32"
        }
      ],
      "name": "trade",
      "outputs": [],
      "payable": false,
      "stateMutability": "nonpayable",
      "type": "function"
    }
  ],
  "bytecode": "0x608060405234801561001057600080fd5b50610991806100206000396000f300608060405260043610610078576000357c0100000000000000000000000000000000000000000000000000000000900463ffffffff168063494c6c841461007d578063666670c2146100ca578063bae1888014610140578063cf2d3f77146101b6578063decebbce1461020d578063e43d826e14610272575b600080fd5b34801561008957600080fd5b506100c8600480360381019080803573ffffffffffffffffffffffffffffffffffffffff169060200190929190803590602001909291905050506102c9565b005b3480156100d657600080fd5b5061013e60048036038101908080359060200190929190803573ffffffffffffffffffffffffffffffffffffffff169060200190929190803560ff16906020019092919080356000191690602001909291908035600019169060200190929190505050610357565b005b34801561014c57600080fd5b5061018b600480360381019080803573ffffffffffffffffffffffffffffffffffffffff169060200190929190803590602001909291905050506105a0565b6040518085815260200184815260200183815260200182815260200194505050505060405180910390f35b3480156101c257600080fd5b506101f7600480360381019080803573ffffffffffffffffffffffffffffffffffffffff16906020019092919050505061072b565b6040518082815260200191505060405180910390f35b34801561021957600080fd5b5061024e600480360381019080803573ffffffffffffffffffffffffffffffffffffffff169060200190929190505050610776565b60405180848152602001838152602001828152602001935050505060405180910390f35b34801561027e57600080fd5b506102c7600480360381019080803573ffffffffffffffffffffffffffffffffffffffff1690602001909291908035906020019092919080359060200190929190505050610851565b005b6102d161091a565b606060405190810160405280838152602001600081526020016000815250905080600160008573ffffffffffffffffffffffffffffffffffffffff1673ffffffffffffffffffffffffffffffffffffffff168152602001908152602001600020600082015181600001556020820151816001015560408201518160020155905050505050565b600060606000600160106040518083815260200182815260200192505050604051809103902092507f3cf5040aa75c1b8417f98c67832750fc17b056866ca399027bedc8e4d40cd1108360405180826000191660001916815260200191505060405180910390a16040805190810160405280601c81526020017f19457468657265756d205369676e6564204d6573736167653a0a333200000000815250915081836040518083805190602001908083835b60208310151561042d5780518252602082019150602081019050602083039250610408565b6001836020036101000a038019825116818451168082178552505050505050905001826000191660001916815260200192505050604051809103902090508673ffffffffffffffffffffffffffffffffffffffff16600182888888604051600081526020016040526040518085600019166000191681526020018460ff1660ff1681526020018360001916600019168152602001826000191660001916815260200194505050505060206040516020810390808403906000865af11580156104f9573d6000803e3d6000fd5b5050506020604051035173ffffffffffffffffffffffffffffffffffffffff1614151561055d577f8dcdcc8ca43bd7682107007cf831a8d71281d45aa767e210abcb470a26990fb460196040518082815260200191505060405180910390a1610596565b7f8dcdcc8ca43bd7682107007cf831a8d71281d45aa767e210abcb470a26990fb4601a6040518082815260200191505060405180910390a15b5050505050505050565b6000806000806000808773ffffffffffffffffffffffffffffffffffffffff1673ffffffffffffffffffffffffffffffffffffffff168152602001908152602001600020858154811015156105f157fe5b90600052602060002090600402016000015493506000808773ffffffffffffffffffffffffffffffffffffffff1673ffffffffffffffffffffffffffffffffffffffff1681526020019081526020016000208581548110151561065057fe5b90600052602060002090600402016001015492506000808773ffffffffffffffffffffffffffffffffffffffff1673ffffffffffffffffffffffffffffffffffffffff168152602001908152602001600020858154811015156106af57fe5b90600052602060002090600402016002015491506000808773ffffffffffffffffffffffffffffffffffffffff1673ffffffffffffffffffffffffffffffffffffffff1681526020019081526020016000208581548110151561070e57fe5b906000526020600020906004020160030154905092959194509250565b60008060008373ffffffffffffffffffffffffffffffffffffffff1673ffffffffffffffffffffffffffffffffffffffff168152602001908152602001600020805490509050919050565b6000806000600160008573ffffffffffffffffffffffffffffffffffffffff1673ffffffffffffffffffffffffffffffffffffffff168152602001908152602001600020600001549250600160008573ffffffffffffffffffffffffffffffffffffffff1673ffffffffffffffffffffffffffffffffffffffff168152602001908152602001600020600101549150600160008573ffffffffffffffffffffffffffffffffffffffff1673ffffffffffffffffffffffffffffffffffffffff1681526020019081526020016000206002015490509193909250565b61085961093c565b60806040519081016040528084815260200183815260200160008152602001600081525090506000808573ffffffffffffffffffffffffffffffffffffffff1673ffffffffffffffffffffffffffffffffffffffff16815260200190815260200160002081908060018154018082558091505090600182039060005260206000209060040201600090919290919091506000820151816000015560208201518160010155604082015181600201556060820151816003015550505050505050565b6060604051908101604052806000815260200160008152602001600081525090565b6080604051908101604052806000815260200160008152602001600081526020016000815250905600a165627a7a723058200d50b62e2900e4f8a7bcfa0043af68e194513dedd9540812656afd93a75e92af0029",
  "source": "pragma solidity ^0.4.23;\n\ncontract ReceiptTrade {\n\tstruct Receipt {\n\t\tuint \treceiptId;\n\t\tuint\ttotalQty;\n\t\tuint \tremainQty;\n\t\tuint \tfrozenQty;\n\t}\n\n\tstruct Funds {\n\t\tuint totalFunds;\n\t\tuint remainFunds;\n\t\tuint frozenFunds;\n\t}\n\n\tmapping(address => Receipt[]) \tuserReceipt;\n\tmapping(address => Funds)\t\tuserFunds;\n\n\tint _a;\n\n\t//为用户添加仓单\n\tfunction insertUserReceipt(address userAddr, uint receiptId, uint totalQty) public {\n\t\tReceipt memory r = Receipt(receiptId, totalQty, 0, 0);\n\t\tuserReceipt[userAddr].push(r);\n\t}\n\n\t//获取用户的仓单\n\tfunction getReceipt(address userAddr, uint index) public view returns(\n\t\t\t\t\t\t\tuint receiptId, uint totalQty, uint remainQty, uint frozenQty){\n\t\treceiptId \t= \tuserReceipt[userAddr][index].receiptId;\n\t\ttotalQty \t=\tuserReceipt[userAddr][index].totalQty;\n\t\tremainQty \t=\tuserReceipt[userAddr][index].remainQty;\n\t\tfrozenQty \t=\tuserReceipt[userAddr][index].frozenQty;\n\n\t}\n\n\t//获取用户的仓单数组的长度\n\tfunction getReceiptArrayLength(address userAddr) public view returns(uint) {\n\t\treturn userReceipt[userAddr].length;\n\t}\n\n\t//为用户添加资金\n\tfunction insertUserFunds(address userAddr, uint totalFunds) public {\n\t\tFunds memory f = Funds(totalFunds, 0, 0);\n\t\tuserFunds[userAddr] = f;\n\t}\n\n\t//获取用户资金\n\tfunction getFunds(address userAddr) public view returns(uint totalFunds, uint remainFunds, uint frozenFunds){\n\t\ttotalFunds \t=\tuserFunds[userAddr].totalFunds;\n\t\tremainFunds =\tuserFunds[userAddr].remainFunds;\n\t\tfrozenFunds = \tuserFunds[userAddr].frozenFunds;\n\t}\n\n\tevent getErrCode(int errCode);\n\tevent getHash(bytes32 hash);\n\t//function trade(uint[6] tradeValues, address[2] tradeAddress, uint8[2] v, bytes32[4]rs) public  {\n\t//function trade(address addr, uint8 v, bytes32 r, bytes32 s){\n\tfunction trade(uint tradeValues, address addr, uint8 v, bytes32 r, bytes32 s){\n\t\t/*\n\t\t   tradeValues\n\t\t   \t[0] receiptId\n\t\t   \t[1] amountSell\n\t\t   \t[2] price \n\t\t   \t[3] nonceSell \n\t\t   \t[4] amountBuy\n\t\t   \t[5] nonceBuy\n\t\t   tradeAddress\n\t\t   \t[0] addressSell\n\t\t\t[1] addressBuy\n\t\t*/\n\n\t   //bytes32 orderHash = sha3(tradeValues[0], tradeValues[1], tradeValues[2], tradeValues[3]);\n\t   //bytes32 orderHash = sha3(\"11061\");\n\t   bytes32 orderHash = sha3(uint256(1),uint256(16));\n\t   getHash(orderHash);\n\t   bytes memory prefix = \"\\x19Ethereum Signed Message:\\n32\";\n\t   bytes32 hash = sha3(prefix, orderHash);\n\t   if ( ecrecover(hash, v, r, s) != addr)\n\t\t   getErrCode(25);\n\t   else \n\t\t   getErrCode(26);\n\t}\n\n}\n",
  "sourcePath": "/home/jgm/goApp/src/receipt-trade/truffle_receipt/contracts/ReceiptTrade.sol",
  "compiler": {
    "name": "solc",
    "version": "0.4.24+commit.e67f0147.Emscripten.clang"
  },
  "schemaVersion": "2.0.1",
  "updatedAt": "2018-11-26T08:08:05.799Z"
}