{
  "contractName": "ReceiptTrade",
  "abi": [
    {
      "constant": false,
      "inputs": [
        {
          "name": "userAddr",
          "type": "address"
        },
        {
          "name": "receiptId",
          "type": "uint256"
        },
        {
          "name": "totalQty",
          "type": "uint256"
        }
      ],
      "name": "insertUserReceipt",
      "outputs": [],
      "payable": false,
      "stateMutability": "nonpayable",
      "type": "function"
    },
    {
      "constant": true,
      "inputs": [
        {
          "name": "userAddr",
          "type": "address"
        },
        {
          "name": "index",
          "type": "uint256"
        }
      ],
      "name": "getReceipt",
      "outputs": [
        {
          "name": "receiptId",
          "type": "uint256"
        },
        {
          "name": "totalQty",
          "type": "uint256"
        },
        {
          "name": "remainQty",
          "type": "uint256"
        },
        {
          "name": "frozenQty",
          "type": "uint256"
        }
      ],
      "payable": false,
      "stateMutability": "view",
      "type": "function"
    },
    {
      "constant": true,
      "inputs": [
        {
          "name": "userAddr",
          "type": "address"
        }
      ],
      "name": "getReceiptArrayLength",
      "outputs": [
        {
          "name": "",
          "type": "uint256"
        }
      ],
      "payable": false,
      "stateMutability": "view",
      "type": "function"
    },
    {
      "constant": false,
      "inputs": [
        {
          "name": "userAddr",
          "type": "address"
        },
        {
          "name": "totalFunds",
          "type": "uint256"
        }
      ],
      "name": "insertUserFunds",
      "outputs": [],
      "payable": false,
      "stateMutability": "nonpayable",
      "type": "function"
    },
    {
      "constant": true,
      "inputs": [
        {
          "name": "userAddr",
          "type": "address"
        }
      ],
      "name": "getFunds",
      "outputs": [
        {
          "name": "totalFunds",
          "type": "uint256"
        },
        {
          "name": "remainFunds",
          "type": "uint256"
        },
        {
          "name": "frozenFunds",
          "type": "uint256"
        }
      ],
      "payable": false,
      "stateMutability": "view",
      "type": "function"
    }
  ],
  "bytecode": "0x608060405234801561001057600080fd5b506106c7806100206000396000f30060806040526004361061006d576000357c0100000000000000000000000000000000000000000000000000000000900463ffffffff168063494c6c8414610072578063bae18880146100bf578063cf2d3f7714610135578063decebbce1461018c578063e43d826e146101f1575b600080fd5b34801561007e57600080fd5b506100bd600480360381019080803573ffffffffffffffffffffffffffffffffffffffff16906020019092919080359060200190929190505050610248565b005b3480156100cb57600080fd5b5061010a600480360381019080803573ffffffffffffffffffffffffffffffffffffffff169060200190929190803590602001909291905050506102d6565b6040518085815260200184815260200183815260200182815260200194505050505060405180910390f35b34801561014157600080fd5b50610176600480360381019080803573ffffffffffffffffffffffffffffffffffffffff169060200190929190505050610461565b6040518082815260200191505060405180910390f35b34801561019857600080fd5b506101cd600480360381019080803573ffffffffffffffffffffffffffffffffffffffff1690602001909291905050506104ac565b60405180848152602001838152602001828152602001935050505060405180910390f35b3480156101fd57600080fd5b50610246600480360381019080803573ffffffffffffffffffffffffffffffffffffffff1690602001909291908035906020019092919080359060200190929190505050610587565b005b610250610650565b606060405190810160405280838152602001600081526020016000815250905080600160008573ffffffffffffffffffffffffffffffffffffffff1673ffffffffffffffffffffffffffffffffffffffff168152602001908152602001600020600082015181600001556020820151816001015560408201518160020155905050505050565b6000806000806000808773ffffffffffffffffffffffffffffffffffffffff1673ffffffffffffffffffffffffffffffffffffffff1681526020019081526020016000208581548110151561032757fe5b90600052602060002090600402016000015493506000808773ffffffffffffffffffffffffffffffffffffffff1673ffffffffffffffffffffffffffffffffffffffff1681526020019081526020016000208581548110151561038657fe5b90600052602060002090600402016001015492506000808773ffffffffffffffffffffffffffffffffffffffff1673ffffffffffffffffffffffffffffffffffffffff168152602001908152602001600020858154811015156103e557fe5b90600052602060002090600402016002015491506000808773ffffffffffffffffffffffffffffffffffffffff1673ffffffffffffffffffffffffffffffffffffffff1681526020019081526020016000208581548110151561044457fe5b906000526020600020906004020160030154905092959194509250565b60008060008373ffffffffffffffffffffffffffffffffffffffff1673ffffffffffffffffffffffffffffffffffffffff168152602001908152602001600020805490509050919050565b6000806000600160008573ffffffffffffffffffffffffffffffffffffffff1673ffffffffffffffffffffffffffffffffffffffff168152602001908152602001600020600001549250600160008573ffffffffffffffffffffffffffffffffffffffff1673ffffffffffffffffffffffffffffffffffffffff168152602001908152602001600020600101549150600160008573ffffffffffffffffffffffffffffffffffffffff1673ffffffffffffffffffffffffffffffffffffffff1681526020019081526020016000206002015490509193909250565b61058f610672565b60806040519081016040528084815260200183815260200160008152602001600081525090506000808573ffffffffffffffffffffffffffffffffffffffff1673ffffffffffffffffffffffffffffffffffffffff16815260200190815260200160002081908060018154018082558091505090600182039060005260206000209060040201600090919290919091506000820151816000015560208201518160010155604082015181600201556060820151816003015550505050505050565b6060604051908101604052806000815260200160008152602001600081525090565b6080604051908101604052806000815260200160008152602001600081526020016000815250905600a165627a7a7230582072ef73be9f9d8686e7c95621a2e1c335522dfe5e486d809bdb5ed8097e50b54d0029",
  "source": "pragma solidity ^0.4.23;\n\ncontract ReceiptTrade {\n\tstruct Receipt {\n\t\tuint \treceiptId;\n\t\tuint\ttotalQty;\n\t\tuint \tremainQty;\n\t\tuint \tfrozenQty;\n\t}\n\n\tstruct Funds {\n\t\tuint totalFunds;\n\t\tuint remainFunds;\n\t\tuint frozenFunds;\n\t}\n\n\tmapping(address => Receipt[]) \tuserReceipt;\n\tmapping(address => Funds)\t\tuserFunds;\n\n\tint _a;\n\n\t//为用户添加仓单\n\tfunction insertUserReceipt(address userAddr, uint receiptId, uint totalQty) public {\n\t\tReceipt memory r = Receipt(receiptId, totalQty, 0, 0);\n\t\tuserReceipt[userAddr].push(r);\n\t}\n\n\t//获取用户的仓单\n\tfunction getReceipt(address userAddr, uint index) public view returns(\n\t\t\t\t\t\t\tuint receiptId, uint totalQty, uint remainQty, uint frozenQty){\n\t\treceiptId \t= \tuserReceipt[userAddr][index].receiptId;\n\t\ttotalQty \t=\tuserReceipt[userAddr][index].totalQty;\n\t\tremainQty \t=\tuserReceipt[userAddr][index].remainQty;\n\t\tfrozenQty \t=\tuserReceipt[userAddr][index].frozenQty;\n\n\t}\n\n\t//获取用户的仓单数组的长度\n\tfunction getReceiptArrayLength(address userAddr) public view returns(uint) {\n\t\treturn userReceipt[userAddr].length;\n\t}\n\n\t//为用户添加资金\n\tfunction insertUserFunds(address userAddr, uint totalFunds) public {\n\t\tFunds memory f = Funds(totalFunds, 0, 0);\n\t\tuserFunds[userAddr] = f;\n\t}\n\n\t//获取用户资金\n\tfunction getFunds(address userAddr) public view returns(uint totalFunds, uint remainFunds, uint frozenFunds){\n\t\ttotalFunds \t=\tuserFunds[userAddr].totalFunds;\n\t\tremainFunds =\tuserFunds[userAddr].remainFunds;\n\t\tfrozenFunds = \tuserFunds[userAddr].frozenFunds;\n\t}\n\n}\n",
  "sourcePath": "/home/jgm/goApp/src/receipt-trade/truffle_receipt/contracts/ReceiptTrade.sol",
  "compiler": {
    "name": "solc",
    "version": "0.4.24+commit.e67f0147.Emscripten.clang"
  },
  "schemaVersion": "2.0.1",
  "updatedAt": "2018-11-21T02:57:13.890Z"
}