{
  "contractName": "ReceiptTrade",
  "abi": [
    {
      "constant": false,
      "inputs": [
        {
          "name": "userAddr",
          "type": "address"
        },
        {
          "name": "receiptId",
          "type": "uint256"
        },
        {
          "name": "totalQty",
          "type": "uint256"
        }
      ],
      "name": "insertUserReceipt",
      "outputs": [],
      "payable": false,
      "stateMutability": "nonpayable",
      "type": "function"
    },
    {
      "constant": true,
      "inputs": [
        {
          "name": "userAddr",
          "type": "address"
        },
        {
          "name": "index",
          "type": "uint256"
        }
      ],
      "name": "getReceipt",
      "outputs": [
        {
          "name": "receiptId",
          "type": "uint256"
        },
        {
          "name": "totalQty",
          "type": "uint256"
        },
        {
          "name": "remainQty",
          "type": "uint256"
        },
        {
          "name": "frozenQty",
          "type": "uint256"
        }
      ],
      "payable": false,
      "stateMutability": "view",
      "type": "function"
    },
    {
      "constant": true,
      "inputs": [
        {
          "name": "userAddr",
          "type": "address"
        }
      ],
      "name": "getReceiptArrayLength",
      "outputs": [
        {
          "name": "",
          "type": "uint256"
        }
      ],
      "payable": false,
      "stateMutability": "view",
      "type": "function"
    }
  ],
  "bytecode": "0x608060405234801561001057600080fd5b50610474806100206000396000f300608060405260043610610057576000357c0100000000000000000000000000000000000000000000000000000000900463ffffffff168063bae188801461005c578063cf2d3f77146100d2578063e43d826e14610129575b600080fd5b34801561006857600080fd5b506100a7600480360381019080803573ffffffffffffffffffffffffffffffffffffffff16906020019092919080359060200190929190505050610180565b6040518085815260200184815260200183815260200182815260200194505050505060405180910390f35b3480156100de57600080fd5b50610113600480360381019080803573ffffffffffffffffffffffffffffffffffffffff16906020019092919050505061030b565b6040518082815260200191505060405180910390f35b34801561013557600080fd5b5061017e600480360381019080803573ffffffffffffffffffffffffffffffffffffffff1690602001909291908035906020019092919080359060200190929190505050610356565b005b6000806000806000808773ffffffffffffffffffffffffffffffffffffffff1673ffffffffffffffffffffffffffffffffffffffff168152602001908152602001600020858154811015156101d157fe5b90600052602060002090600402016000015493506000808773ffffffffffffffffffffffffffffffffffffffff1673ffffffffffffffffffffffffffffffffffffffff1681526020019081526020016000208581548110151561023057fe5b90600052602060002090600402016001015492506000808773ffffffffffffffffffffffffffffffffffffffff1673ffffffffffffffffffffffffffffffffffffffff1681526020019081526020016000208581548110151561028f57fe5b90600052602060002090600402016002015491506000808773ffffffffffffffffffffffffffffffffffffffff1673ffffffffffffffffffffffffffffffffffffffff168152602001908152602001600020858154811015156102ee57fe5b906000526020600020906004020160030154905092959194509250565b60008060008373ffffffffffffffffffffffffffffffffffffffff1673ffffffffffffffffffffffffffffffffffffffff168152602001908152602001600020805490509050919050565b61035e61041f565b60806040519081016040528084815260200183815260200160008152602001600081525090506000808573ffffffffffffffffffffffffffffffffffffffff1673ffffffffffffffffffffffffffffffffffffffff16815260200190815260200160002081908060018154018082558091505090600182039060005260206000209060040201600090919290919091506000820151816000015560208201518160010155604082015181600201556060820151816003015550505050505050565b6080604051908101604052806000815260200160008152602001600081526020016000815250905600a165627a7a72305820ef110e8bdc62d4aef1035abf19c3e36eddf78afc694a6ca135125c15cbb741e00029",
  "source": "pragma solidity ^0.4.23;\n\ncontract ReceiptTrade {\n\tstruct Receipt {\n\t\tuint \treceiptId;\n\t\tuint\ttotalQty;\n\t\tuint \tremainQty;\n\t\tuint \tfrozenQty;\n\t}\n\n\tmapping(address => Receipt[]) userReceipt;\n\n\tint _a;\n\n\tfunction insertUserReceipt(address userAddr, uint receiptId, uint totalQty) public {\n\t\tReceipt memory r = Receipt(receiptId, totalQty, 0, 0);\n\t\tuserReceipt[userAddr].push(r);\n\t}\n\n\tfunction getReceipt(address userAddr, uint index) public view returns(\n\t\t\t\t\t\t\tuint receiptId, uint totalQty, uint remainQty, uint frozenQty){\n\t\treceiptId \t= \tuserReceipt[userAddr][index].receiptId;\n\t\ttotalQty \t=\tuserReceipt[userAddr][index].totalQty;\n\t\tremainQty \t=\tuserReceipt[userAddr][index].remainQty;\n\t\tfrozenQty \t=\tuserReceipt[userAddr][index].frozenQty;\n\n\t}\n\n\t//获取用户的仓单数组的长度\n\tfunction getReceiptArrayLength(address userAddr) public view returns(uint) {\n\t\treturn userReceipt[userAddr].length;\n\t}\n\n}\n",
  "sourcePath": "/home/jgm/goApp/src/receipt-trade/truffle_receipt/contracts/ReceiptTrade.sol",
  "compiler": {
    "name": "solc",
    "version": "0.4.24+commit.e67f0147.Emscripten.clang"
  },
  "schemaVersion": "2.0.1",
  "updatedAt": "2018-11-20T05:13:02.351Z"
}